:080000000C942A000C9400008E
:100008000C9400000C9400000C9400000C94000068
:100018000C9400000C9400000C9400000C94000058
:100028000C9400000C9400000C9400000C94000048
:100038000C9400000C9400000C9400000C94000038
:100048000C9400000C9400000C940000F894EE2727
:10005800ECBBF1E0FBBFEBBFE5BF8DE0A2E0BB2747
:10006800ED938A95E9F780E098E0A0E6ED93019793
:10007800E9F7EFE5EDBFE8E0EEBFC0E6D2E00C94AB
:100088004500E0E0E7BBE8BBE3BFE2BFECBFEFBD84
:10009800EEBDEDBDECBDE7BDE6BDEBBDEABDE9BD1E
:1000A800E8BDE2BDE5BDE4BDE3BDE9BFE5BFE4BF32
:1000B800EAB9E0E8E8B9E0E0E0BFE6B9EDB9E6BFE3
:1000C800E8EFE1BBEFEFEABBE4BBE1E0EBBBE0B399
:1000D800E7702E2F3327A1E00E948C00E5BB0BB3FD
:1000E800000F03FF04C0E02FE095E1700E2F0BBB5B
:1000F800A4E6B0E00E948200EACFFFCF109639F064
:1001080080ED97E00197F1F7A8951197C9F7089541
:10011800EE230E2EEA2F19F0EE0F0A94E9F7089550
:00000001FF
