:100000000C942A000C9400000C9400000C94000046
:100010000C9400000C9400000C9400000C94000060
:100020000C9400000C9400000C9400000C94000050
:100030000C9400000C9400000C9400000C94000040
:100040000C9400000C9400000C9400000C94000030
:100050000C940000F894EE27ECBBF1E0FBBFEBBF83
:10006000E5BF8DE0A2E0BB27ED938A95E9F780E03C
:1000700098E0A0E6ED930197E9F7EFE5EDBFE8E042
:10008000EEBFC0E6D2E00C944500E0E0E3BFE2BF83
:10009000ECBFEFBDEEBDEDBDECBDE7BDE6BDEBBD1C
:1000A000EABDE9BDE8BDE2BDE5BDE4BDE3BDE9BF34
:1000B000E5BFE4BFEAB9E0E8E8B9E0E0E0BFE6B9EF
:1000C000EDB9E6BFEFEFEABBECEFE7BBEFEFE4BB68
:1000D000E1BBEBBBE6B3E3700E2F1127F8013097BD
:1000E00019F424E130E014C0E130A0E0FA0719F47B
:1000F00028E230E00DC0E230A0E0FA0719F422E374
:1001000030E006C0E330A0E0FA0711F42BE430E061
:10011000DF98D9010E949600DF9AE4E6F0E0E21B46
:10012000F30BDF010E949600F3CFFFCF109639F05A
:1001300080ED97E00197F1F7A8951197C9F7089519
:00000001FF
